:0200000080245A
:03000B00020141AE
:1000230002014C75311075304B7532007533007514
:100033003400753500753601117520B6322090FDF8
:1000430030902620920D740511992090FD740111B2
:100053009980ED20930D740411992090FD74011182
:100063009980DD7402119980D77401119980D18030
:10007300FE22118AE536119911E21184D28CD28EB7
:1000830022759850D2AC22D2A0D2A5D294D290D2CB
:1000930092D293D2B622B40009D2A1D2A2D2A4D2D0
:1000A300A322B40109C2A1C2A2C2A4C2A322B40260
:1000B30009D2A2C2A1D2A4C2A322B40309C2A2D26A
:1000C300A1C2A4D2A322B40409D2A2C2A1C2A4D2BF
:1000D300A322B405C1C2A2D2A1D2A4C2A32222D216
:1000E300AFD2A9758922758CA3758AA3758DFD7509
:1000F3008BFD227E02DEFE22E532B53002800C400B
:100103000AB4640575320080078005D2A0D2A52207
:10011300C2A0C2A52222E533B53102800C400AB445
:10012300C90575330080058003D29422C29422222C
:10013300309005E536119922740111992222053276
:1001430005331201191200FB3220980132E599F8A8
:08015300B8530B753110740163
:10015B00F53611998064B8460B7531107402F5367B
:10016B0011998056B8420B7531107403F5361199FD
:10017B008048B84C0575310C8040B8520575311468
:10018B008038B8470B75310C7402F5361199802AFB
:10019B00B8490B7531147402F5361199801CB848A7
:1001AB000B75310C7403F5361199800EB84A0B752B
:0E01BB0031147403F53611998000C298323267
:00000001FF
